{"contracts/Absensi.sol":{"Absensi":{"abi":[{"inputs":[],"stateMutability":"nonpayable","type":"constructor"},{"inputs":[],"name":"MahasiswaNotFound","type":"error"},{"inputs":[],"name":"OnlyForOwner","type":"error"},{"anonymous":false,"inputs":[{"indexed":false,"internalType":"address","name":"mahasiswa","type":"address"}],"name":"MahasiswaAdded","type":"event"},{"anonymous":false,"inputs":[{"indexed":false,"internalType":"address","name":"mahasiswa","type":"address"},{"indexed":false,"internalType":"string","name":"nama","type":"string"}],"name":"NamaMahasiswaUpdated","type":"event"},{"inputs":[{"internalType":"address","name":"_mahasiswa","type":"address"},{"internalType":"string","name":"_nim","type":"string"},{"internalType":"string","name":"_nama","type":"string"}],"name":"addMahasiswa","outputs":[],"stateMutability":"nonpayable","type":"function"},{"inputs":[{"internalType":"address","name":"_mahasiswa","type":"address"}],"name":"getNamaMahasiswa","outputs":[{"internalType":"string","name":"","type":"string"}],"stateMutability":"view","type":"function"},{"inputs":[{"internalType":"address","name":"_mahasiswa","type":"address"}],"name":"getNimMahasiswa","outputs":[{"internalType":"string","name":"","type":"string"}],"stateMutability":"view","type":"function"},{"inputs":[{"internalType":"address","name":"","type":"address"}],"name":"mahasiswa","outputs":[{"internalType":"string","name":"nim","type":"string"},{"internalType":"string","name":"nama","type":"string"},{"internalType":"bool","name":"exist","type":"bool"}],"stateMutability":"view","type":"function"},{"inputs":[],"name":"owner","outputs":[{"internalType":"address","name":"","type":"address"}],"stateMutability":"view","type":"function"},{"inputs":[{"internalType":"address","name":"_mahasiswa","type":"address"},{"internalType":"string","name":"_nama","type":"string"}],"name":"setNamaMahasiswa","outputs":[],"stateMutability":"nonpayable","type":"function"}],"evm":{"bytecode":{"linkReferences":{},"object":"608060405234801561001057600080fd5b50600080546001600160a01b03191633179055610985806100326000396000f3fe608060405234801561001057600080fd5b50600436106100625760003560e01c8063217157341461006757806338b14a031461007c5780633d4311f8146100a557806386848c5b146100b85780638da5cb5b146100cb5780638e905757146100f6575b600080fd5b61007a6100753660046105f6565b610118565b005b61008f61008a366004610644565b6101ce565b60405161009c91906106ac565b60405180910390f35b61007a6100b33660046106bf565b6102bf565b61008f6100c6366004610644565b61039a565b6000546100de906001600160a01b031681565b6040516001600160a01b03909116815260200161009c565b610109610104366004610644565b610402565b60405161009c93929190610733565b6000546001600160a01b03163314610143576040516317a7bee360e11b815260040160405180910390fd5b6001600160a01b03821660009081526001602081905260409091200161016982826107f4565b507ffa24d778dd4e0ab7e66a3fd9241e15f44504f8330df458ffa97abebeacf5de408260016000856001600160a01b03166001600160a01b031681526020019081526020016000206001016040516101c29291906108b4565b60405180910390a15050565b6001600160a01b03811660009081526001602052604081206002015460609160ff9091161515900361021357604051634451250f60e11b815260040160405180910390fd5b6001600160a01b038216600090815260016020819052604090912001805461023a9061076b565b80601f01602080910402602001604051908101604052809291908181526020018280546102669061076b565b80156102b35780601f10610288576101008083540402835291602001916102b3565b820191906000526020600020905b81548152906001019060200180831161029657829003601f168201915b50505050509050919050565b6000546001600160a01b031633146102ea576040516317a7bee360e11b815260040160405180910390fd5b60408051606081018252838152602080820184905260018284018190526001600160a01b03871660009081529152919091208151819061032a90826107f4565b506020820151600182019061033f90826107f4565b50604091820151600291909101805460ff1916911515919091179055516001600160a01b03841681527f67b31359d8ac89ce1a719d4adf33de478ccd1aefcd46fdd2b4716bd8d111b0ef9060200160405180910390a1505050565b6001600160a01b03811660009081526001602052604081206002015460609160ff909116151590036103df57604051634451250f60e11b815260040160405180910390fd5b6001600160a01b0382166000908152600160205260409020805461023a9061076b565b60016020526000908152604090208054819061041d9061076b565b80601f01602080910402602001604051908101604052809291908181526020018280546104499061076b565b80156104965780601f1061046b57610100808354040283529160200191610496565b820191906000526020600020905b81548152906001019060200180831161047957829003601f168201915b5050505050908060010180546104ab9061076b565b80601f01602080910402602001604051908101604052809291908181526020018280546104d79061076b565b80156105245780601f106104f957610100808354040283529160200191610524565b820191906000526020600020905b81548152906001019060200180831161050757829003601f168201915b5050506002909301549192505060ff1683565b80356001600160a01b038116811461054e57600080fd5b919050565b634e487b7160e01b600052604160045260246000fd5b600082601f83011261057a57600080fd5b813567ffffffffffffffff8082111561059557610595610553565b604051601f8301601f19908116603f011681019082821181831017156105bd576105bd610553565b816040528381528660208588010111156105d657600080fd5b836020870160208301376000602085830101528094505050505092915050565b6000806040838503121561060957600080fd5b61061283610537565b9150602083013567ffffffffffffffff81111561062e57600080fd5b61063a85828601610569565b9150509250929050565b60006020828403121561065657600080fd5b61065f82610537565b9392505050565b6000815180845260005b8181101561068c57602081850181015186830182015201610670565b506000602082860101526020601f19601f83011685010191505092915050565b60208152600061065f6020830184610666565b6000806000606084860312156106d457600080fd5b6106dd84610537565b9250602084013567ffffffffffffffff808211156106fa57600080fd5b61070687838801610569565b9350604086013591508082111561071c57600080fd5b5061072986828701610569565b9150509250925092565b6060815260006107466060830186610666565b82810360208401526107588186610666565b9150508215156040830152949350505050565b600181811c9082168061077f57607f821691505b60208210810361079f57634e487b7160e01b600052602260045260246000fd5b50919050565b601f8211156107ef57600081815260208120601f850160051c810160208610156107cc5750805b601f850160051c820191505b818110156107eb578281556001016107d8565b5050505b505050565b815167ffffffffffffffff81111561080e5761080e610553565b6108228161081c845461076b565b846107a5565b602080601f831160018114610857576000841561083f5750858301515b600019600386901b1c1916600185901b1785556107eb565b600085815260208120601f198616915b8281101561088657888601518255948401946001909101908401610867565b50858210156108a45787850151600019600388901b60f8161c191681555b5050505050600190811b01905550565b60018060a01b038316815260006020604081840152600084546108d68161076b565b80604087015260606001808416600081146108f8576001811461091257610940565b60ff1985168984015283151560051b890183019550610940565b896000528660002060005b858110156109385781548b820186015290830190880161091d565b8a0184019650505b5093999850505050505050505056fea2646970667358221220e3ed3f6f1e1971be959c3a8031d30a3fbbe1064472c0fbab9f77a57a22c72cd864736f6c63430008120033","opcodes":"PUSH1 0x80 PUSH1 0x40 MSTORE CALLVALUE DUP1 ISZERO PUSH2 0x10 JUMPI PUSH1 0x0 DUP1 REVERT JUMPDEST POP PUSH1 0x0 DUP1 SLOAD PUSH1 0x1 PUSH1 0x1 PUSH1 0xA0 SHL SUB NOT AND CALLER OR SWAP1 SSTORE PUSH2 0x985 DUP1 PUSH2 0x32 PUSH1 0x0 CODECOPY PUSH1 0x0 RETURN INVALID PUSH1 0x80 PUSH1 0x40 MSTORE CALLVALUE DUP1 ISZERO PUSH2 0x10 JUMPI PUSH1 0x0 DUP1 REVERT JUMPDEST POP PUSH1 0x4 CALLDATASIZE LT PUSH2 0x62 JUMPI PUSH1 0x0 CALLDATALOAD PUSH1 0xE0 SHR DUP1 PUSH4 0x21715734 EQ PUSH2 0x67 JUMPI DUP1 PUSH4 0x38B14A03 EQ PUSH2 0x7C JUMPI DUP1 PUSH4 0x3D4311F8 EQ PUSH2 0xA5 JUMPI DUP1 PUSH4 0x86848C5B EQ PUSH2 0xB8 JUMPI DUP1 PUSH4 0x8DA5CB5B EQ PUSH2 0xCB JUMPI DUP1 PUSH4 0x8E905757 EQ PUSH2 0xF6 JUMPI JUMPDEST PUSH1 0x0 DUP1 REVERT JUMPDEST PUSH2 0x7A PUSH2 0x75 CALLDATASIZE PUSH1 0x4 PUSH2 0x5F6 JUMP JUMPDEST PUSH2 0x118 JUMP JUMPDEST STOP JUMPDEST PUSH2 0x8F PUSH2 0x8A CALLDATASIZE PUSH1 0x4 PUSH2 0x644 JUMP JUMPDEST PUSH2 0x1CE JUMP JUMPDEST PUSH1 0x40 MLOAD PUSH2 0x9C SWAP2 SWAP1 PUSH2 0x6AC JUMP JUMPDEST PUSH1 0x40 MLOAD DUP1 SWAP2 SUB SWAP1 RETURN JUMPDEST PUSH2 0x7A PUSH2 0xB3 CALLDATASIZE PUSH1 0x4 PUSH2 0x6BF JUMP JUMPDEST PUSH2 0x2BF JUMP JUMPDEST PUSH2 0x8F PUSH2 0xC6 CALLDATASIZE PUSH1 0x4 PUSH2 0x644 JUMP JUMPDEST PUSH2 0x39A JUMP JUMPDEST PUSH1 0x0 SLOAD PUSH2 0xDE SWAP1 PUSH1 0x1 PUSH1 0x1 PUSH1 0xA0 SHL SUB AND DUP2 JUMP JUMPDEST PUSH1 0x40 MLOAD PUSH1 0x1 PUSH1 0x1 PUSH1 0xA0 SHL SUB SWAP1 SWAP2 AND DUP2 MSTORE PUSH1 0x20 ADD PUSH2 0x9C JUMP JUMPDEST PUSH2 0x109 PUSH2 0x104 CALLDATASIZE PUSH1 0x4 PUSH2 0x644 JUMP JUMPDEST PUSH2 0x402 JUMP JUMPDEST PUSH1 0x40 MLOAD PUSH2 0x9C SWAP4 SWAP3 SWAP2 SWAP1 PUSH2 0x733 JUMP JUMPDEST PUSH1 0x0 SLOAD PUSH1 0x1 PUSH1 0x1 PUSH1 0xA0 SHL SUB AND CALLER EQ PUSH2 0x143 JUMPI PUSH1 0x40 MLOAD PUSH4 0x17A7BEE3 PUSH1 0xE1 SHL DUP2 MSTORE PUSH1 0x4 ADD PUSH1 0x40 MLOAD DUP1 SWAP2 SUB SWAP1 REVERT JUMPDEST PUSH1 0x1 PUSH1 0x1 PUSH1 0xA0 SHL SUB DUP3 AND PUSH1 0x0 SWAP1 DUP2 MSTORE PUSH1 0x1 PUSH1 0x20 DUP2 SWAP1 MSTORE PUSH1 0x40 SWAP1 SWAP2 KECCAK256 ADD PUSH2 0x169 DUP3 DUP3 PUSH2 0x7F4 JUMP JUMPDEST POP PUSH32 0xFA24D778DD4E0AB7E66A3FD9241E15F44504F8330DF458FFA97ABEBEACF5DE40 DUP3 PUSH1 0x1 PUSH1 0x0 DUP6 PUSH1 0x1 PUSH1 0x1 PUSH1 0xA0 SHL SUB AND PUSH1 0x1 PUSH1 0x1 PUSH1 0xA0 SHL SUB AND DUP2 MSTORE PUSH1 0x20 ADD SWAP1 DUP2 MSTORE PUSH1 0x20 ADD PUSH1 0x0 KECCAK256 PUSH1 0x1 ADD PUSH1 0x40 MLOAD PUSH2 0x1C2 SWAP3 SWAP2 SWAP1 PUSH2 0x8B4 JUMP JUMPDEST PUSH1 0x40 MLOAD DUP1 SWAP2 SUB SWAP1 LOG1 POP POP JUMP JUMPDEST PUSH1 0x1 PUSH1 0x1 PUSH1 0xA0 SHL SUB DUP2 AND PUSH1 0x0 SWAP1 DUP2 MSTORE PUSH1 0x1 PUSH1 0x20 MSTORE PUSH1 0x40 DUP2 KECCAK256 PUSH1 0x2 ADD SLOAD PUSH1 0x60 SWAP2 PUSH1 0xFF SWAP1 SWAP2 AND ISZERO ISZERO SWAP1 SUB PUSH2 0x213 JUMPI PUSH1 0x40 MLOAD PUSH4 0x4451250F PUSH1 0xE1 SHL DUP2 MSTORE PUSH1 0x4 ADD PUSH1 0x40 MLOAD DUP1 SWAP2 SUB SWAP1 REVERT JUMPDEST PUSH1 0x1 PUSH1 0x1 PUSH1 0xA0 SHL SUB DUP3 AND PUSH1 0x0 SWAP1 DUP2 MSTORE PUSH1 0x1 PUSH1 0x20 DUP2 SWAP1 MSTORE PUSH1 0x40 SWAP1 SWAP2 KECCAK256 ADD DUP1 SLOAD PUSH2 0x23A SWAP1 PUSH2 0x76B JUMP JUMPDEST DUP1 PUSH1 0x1F ADD PUSH1 0x20 DUP1 SWAP2 DIV MUL PUSH1 0x20 ADD PUSH1 0x40 MLOAD SWAP1 DUP2 ADD PUSH1 0x40 MSTORE DUP1 SWAP3 SWAP2 SWAP1 DUP2 DUP2 MSTORE PUSH1 0x20 ADD DUP3 DUP1 SLOAD PUSH2 0x266 SWAP1 PUSH2 0x76B JUMP JUMPDEST DUP1 ISZERO PUSH2 0x2B3 JUMPI DUP1 PUSH1 0x1F LT PUSH2 0x288 JUMPI PUSH2 0x100 DUP1 DUP4 SLOAD DIV MUL DUP4 MSTORE SWAP2 PUSH1 0x20 ADD SWAP2 PUSH2 0x2B3 JUMP JUMPDEST DUP3 ADD SWAP2 SWAP1 PUSH1 0x0 MSTORE PUSH1 0x20 PUSH1 0x0 KECCAK256 SWAP1 JUMPDEST DUP2 SLOAD DUP2 MSTORE SWAP1 PUSH1 0x1 ADD SWAP1 PUSH1 0x20 ADD DUP1 DUP4 GT PUSH2 0x296 JUMPI DUP3 SWAP1 SUB PUSH1 0x1F AND DUP3 ADD SWAP2 JUMPDEST POP POP POP POP POP SWAP1 POP SWAP2 SWAP1 POP JUMP JUMPDEST PUSH1 0x0 SLOAD PUSH1 0x1 PUSH1 0x1 PUSH1 0xA0 SHL SUB AND CALLER EQ PUSH2 0x2EA JUMPI PUSH1 0x40 MLOAD PUSH4 0x17A7BEE3 PUSH1 0xE1 SHL DUP2 MSTORE PUSH1 0x4 ADD PUSH1 0x40 MLOAD DUP1 SWAP2 SUB SWAP1 REVERT JUMPDEST PUSH1 0x40 DUP1 MLOAD PUSH1 0x60 DUP2 ADD DUP3 MSTORE DUP4 DUP2 MSTORE PUSH1 0x20 DUP1 DUP3 ADD DUP5 SWAP1 MSTORE PUSH1 0x1 DUP3 DUP5 ADD DUP2 SWAP1 MSTORE PUSH1 0x1 PUSH1 0x1 PUSH1 0xA0 SHL SUB DUP8 AND PUSH1 0x0 SWAP1 DUP2 MSTORE SWAP2 MSTORE SWAP2 SWAP1 SWAP2 KECCAK256 DUP2 MLOAD DUP2 SWAP1 PUSH2 0x32A SWAP1 DUP3 PUSH2 0x7F4 JUMP JUMPDEST POP PUSH1 0x20 DUP3 ADD MLOAD PUSH1 0x1 DUP3 ADD SWAP1 PUSH2 0x33F SWAP1 DUP3 PUSH2 0x7F4 JUMP JUMPDEST POP PUSH1 0x40 SWAP2 DUP3 ADD MLOAD PUSH1 0x2 SWAP2 SWAP1 SWAP2 ADD DUP1 SLOAD PUSH1 0xFF NOT AND SWAP2 ISZERO ISZERO SWAP2 SWAP1 SWAP2 OR SWAP1 SSTORE MLOAD PUSH1 0x1 PUSH1 0x1 PUSH1 0xA0 SHL SUB DUP5 AND DUP2 MSTORE PUSH32 0x67B31359D8AC89CE1A719D4ADF33DE478CCD1AEFCD46FDD2B4716BD8D111B0EF SWAP1 PUSH1 0x20 ADD PUSH1 0x40 MLOAD DUP1 SWAP2 SUB SWAP1 LOG1 POP POP POP JUMP JUMPDEST PUSH1 0x1 PUSH1 0x1 PUSH1 0xA0 SHL SUB DUP2 AND PUSH1 0x0 SWAP1 DUP2 MSTORE PUSH1 0x1 PUSH1 0x20 MSTORE PUSH1 0x40 DUP2 KECCAK256 PUSH1 0x2 ADD SLOAD PUSH1 0x60 SWAP2 PUSH1 0xFF SWAP1 SWAP2 AND ISZERO ISZERO SWAP1 SUB PUSH2 0x3DF JUMPI PUSH1 0x40 MLOAD PUSH4 0x4451250F PUSH1 0xE1 SHL DUP2 MSTORE PUSH1 0x4 ADD PUSH1 0x40 MLOAD DUP1 SWAP2 SUB SWAP1 REVERT JUMPDEST PUSH1 0x1 PUSH1 0x1 PUSH1 0xA0 SHL SUB DUP3 AND PUSH1 0x0 SWAP1 DUP2 MSTORE PUSH1 0x1 PUSH1 0x20 MSTORE PUSH1 0x40 SWAP1 KECCAK256 DUP1 SLOAD PUSH2 0x23A SWAP1 PUSH2 0x76B JUMP JUMPDEST PUSH1 0x1 PUSH1 0x20 MSTORE PUSH1 0x0 SWAP1 DUP2 MSTORE PUSH1 0x40 SWAP1 KECCAK256 DUP1 SLOAD DUP2 SWAP1 PUSH2 0x41D SWAP1 PUSH2 0x76B JUMP JUMPDEST DUP1 PUSH1 0x1F ADD PUSH1 0x20 DUP1 SWAP2 DIV MUL PUSH1 0x20 ADD PUSH1 0x40 MLOAD SWAP1 DUP2 ADD PUSH1 0x40 MSTORE DUP1 SWAP3 SWAP2 SWAP1 DUP2 DUP2 MSTORE PUSH1 0x20 ADD DUP3 DUP1 SLOAD PUSH2 0x449 SWAP1 PUSH2 0x76B JUMP JUMPDEST DUP1 ISZERO PUSH2 0x496 JUMPI DUP1 PUSH1 0x1F LT PUSH2 0x46B JUMPI PUSH2 0x100 DUP1 DUP4 SLOAD DIV MUL DUP4 MSTORE SWAP2 PUSH1 0x20 ADD SWAP2 PUSH2 0x496 JUMP JUMPDEST DUP3 ADD SWAP2 SWAP1 PUSH1 0x0 MSTORE PUSH1 0x20 PUSH1 0x0 KECCAK256 SWAP1 JUMPDEST DUP2 SLOAD DUP2 MSTORE SWAP1 PUSH1 0x1 ADD SWAP1 PUSH1 0x20 ADD DUP1 DUP4 GT PUSH2 0x479 JUMPI DUP3 SWAP1 SUB PUSH1 0x1F AND DUP3 ADD SWAP2 JUMPDEST POP POP POP POP POP SWAP1 DUP1 PUSH1 0x1 ADD DUP1 SLOAD PUSH2 0x4AB SWAP1 PUSH2 0x76B JUMP JUMPDEST DUP1 PUSH1 0x1F ADD PUSH1 0x20 DUP1 SWAP2 DIV MUL PUSH1 0x20 ADD PUSH1 0x40 MLOAD SWAP1 DUP2 ADD PUSH1 0x40 MSTORE DUP1 SWAP3 SWAP2 SWAP1 DUP2 DUP2 MSTORE PUSH1 0x20 ADD DUP3 DUP1 SLOAD PUSH2 0x4D7 SWAP1 PUSH2 0x76B JUMP JUMPDEST DUP1 ISZERO PUSH2 0x524 JUMPI DUP1 PUSH1 0x1F LT PUSH2 0x4F9 JUMPI PUSH2 0x100 DUP1 DUP4 SLOAD DIV MUL DUP4 MSTORE SWAP2 PUSH1 0x20 ADD SWAP2 PUSH2 0x524 JUMP JUMPDEST DUP3 ADD SWAP2 SWAP1 PUSH1 0x0 MSTORE PUSH1 0x20 PUSH1 0x0 KECCAK256 SWAP1 JUMPDEST DUP2 SLOAD DUP2 MSTORE SWAP1 PUSH1 0x1 ADD SWAP1 PUSH1 0x20 ADD DUP1 DUP4 GT PUSH2 0x507 JUMPI DUP3 SWAP1 SUB PUSH1 0x1F AND DUP3 ADD SWAP2 JUMPDEST POP POP POP PUSH1 0x2 SWAP1 SWAP4 ADD SLOAD SWAP2 SWAP3 POP POP PUSH1 0xFF AND DUP4 JUMP JUMPDEST DUP1 CALLDATALOAD PUSH1 0x1 PUSH1 0x1 PUSH1 0xA0 SHL SUB DUP2 AND DUP2 EQ PUSH2 0x54E JUMPI PUSH1 0x0 DUP1 REVERT JUMPDEST SWAP2 SWAP1 POP JUMP JUMPDEST PUSH4 0x4E487B71 PUSH1 0xE0 SHL PUSH1 0x0 MSTORE PUSH1 0x41 PUSH1 0x4 MSTORE PUSH1 0x24 PUSH1 0x0 REVERT JUMPDEST PUSH1 0x0 DUP3 PUSH1 0x1F DUP4 ADD SLT PUSH2 0x57A JUMPI PUSH1 0x0 DUP1 REVERT JUMPDEST DUP2 CALLDATALOAD PUSH8 0xFFFFFFFFFFFFFFFF DUP1 DUP3 GT ISZERO PUSH2 0x595 JUMPI PUSH2 0x595 PUSH2 0x553 JUMP JUMPDEST PUSH1 0x40 MLOAD PUSH1 0x1F DUP4 ADD PUSH1 0x1F NOT SWAP1 DUP2 AND PUSH1 0x3F ADD AND DUP2 ADD SWAP1 DUP3 DUP3 GT DUP2 DUP4 LT OR ISZERO PUSH2 0x5BD JUMPI PUSH2 0x5BD PUSH2 0x553 JUMP JUMPDEST DUP2 PUSH1 0x40 MSTORE DUP4 DUP2 MSTORE DUP7 PUSH1 0x20 DUP6 DUP9 ADD ADD GT ISZERO PUSH2 0x5D6 JUMPI PUSH1 0x0 DUP1 REVERT JUMPDEST DUP4 PUSH1 0x20 DUP8 ADD PUSH1 0x20 DUP4 ADD CALLDATACOPY PUSH1 0x0 PUSH1 0x20 DUP6 DUP4 ADD ADD MSTORE DUP1 SWAP5 POP POP POP POP POP SWAP3 SWAP2 POP POP JUMP JUMPDEST PUSH1 0x0 DUP1 PUSH1 0x40 DUP4 DUP6 SUB SLT ISZERO PUSH2 0x609 JUMPI PUSH1 0x0 DUP1 REVERT JUMPDEST PUSH2 0x612 DUP4 PUSH2 0x537 JUMP JUMPDEST SWAP2 POP PUSH1 0x20 DUP4 ADD CALLDATALOAD PUSH8 0xFFFFFFFFFFFFFFFF DUP2 GT ISZERO PUSH2 0x62E JUMPI PUSH1 0x0 DUP1 REVERT JUMPDEST PUSH2 0x63A DUP6 DUP3 DUP7 ADD PUSH2 0x569 JUMP JUMPDEST SWAP2 POP POP SWAP3 POP SWAP3 SWAP1 POP JUMP JUMPDEST PUSH1 0x0 PUSH1 0x20 DUP3 DUP5 SUB SLT ISZERO PUSH2 0x656 JUMPI PUSH1 0x0 DUP1 REVERT JUMPDEST PUSH2 0x65F DUP3 PUSH2 0x537 JUMP JUMPDEST SWAP4 SWAP3 POP POP POP JUMP JUMPDEST PUSH1 0x0 DUP2 MLOAD DUP1 DUP5 MSTORE PUSH1 0x0 JUMPDEST DUP2 DUP2 LT ISZERO PUSH2 0x68C JUMPI PUSH1 0x20 DUP2 DUP6 ADD DUP2 ADD MLOAD DUP7 DUP4 ADD DUP3 ADD MSTORE ADD PUSH2 0x670 JUMP JUMPDEST POP PUSH1 0x0 PUSH1 0x20 DUP3 DUP7 ADD ADD MSTORE PUSH1 0x20 PUSH1 0x1F NOT PUSH1 0x1F DUP4 ADD AND DUP6 ADD ADD SWAP2 POP POP SWAP3 SWAP2 POP POP JUMP JUMPDEST PUSH1 0x20 DUP2 MSTORE PUSH1 0x0 PUSH2 0x65F PUSH1 0x20 DUP4 ADD DUP5 PUSH2 0x666 JUMP JUMPDEST PUSH1 0x0 DUP1 PUSH1 0x0 PUSH1 0x60 DUP5 DUP7 SUB SLT ISZERO PUSH2 0x6D4 JUMPI PUSH1 0x0 DUP1 REVERT JUMPDEST PUSH2 0x6DD DUP5 PUSH2 0x537 JUMP JUMPDEST SWAP3 POP PUSH1 0x20 DUP5 ADD CALLDATALOAD PUSH8 0xFFFFFFFFFFFFFFFF DUP1 DUP3 GT ISZERO PUSH2 0x6FA JUMPI PUSH1 0x0 DUP1 REVERT JUMPDEST PUSH2 0x706 DUP8 DUP4 DUP9 ADD PUSH2 0x569 JUMP JUMPDEST SWAP4 POP PUSH1 0x40 DUP7 ADD CALLDATALOAD SWAP2 POP DUP1 DUP3 GT ISZERO PUSH2 0x71C JUMPI PUSH1 0x0 DUP1 REVERT JUMPDEST POP PUSH2 0x729 DUP7 DUP3 DUP8 ADD PUSH2 0x569 JUMP JUMPDEST SWAP2 POP POP SWAP3 POP SWAP3 POP SWAP3 JUMP JUMPDEST PUSH1 0x60 DUP2 MSTORE PUSH1 0x0 PUSH2 0x746 PUSH1 0x60 DUP4 ADD DUP7 PUSH2 0x666 JUMP JUMPDEST DUP3 DUP2 SUB PUSH1 0x20 DUP5 ADD MSTORE PUSH2 0x758 DUP2 DUP7 PUSH2 0x666 JUMP JUMPDEST SWAP2 POP POP DUP3 ISZERO ISZERO PUSH1 0x40 DUP4 ADD MSTORE SWAP5 SWAP4 POP POP POP POP JUMP JUMPDEST PUSH1 0x1 DUP2 DUP2 SHR SWAP1 DUP3 AND DUP1 PUSH2 0x77F JUMPI PUSH1 0x7F DUP3 AND SWAP2 POP JUMPDEST PUSH1 0x20 DUP3 LT DUP2 SUB PUSH2 0x79F JUMPI PUSH4 0x4E487B71 PUSH1 0xE0 SHL PUSH1 0x0 MSTORE PUSH1 0x22 PUSH1 0x4 MSTORE PUSH1 0x24 PUSH1 0x0 REVERT JUMPDEST POP SWAP2 SWAP1 POP JUMP JUMPDEST PUSH1 0x1F DUP3 GT ISZERO PUSH2 0x7EF JUMPI PUSH1 0x0 DUP2 DUP2 MSTORE PUSH1 0x20 DUP2 KECCAK256 PUSH1 0x1F DUP6 ADD PUSH1 0x5 SHR DUP2 ADD PUSH1 0x20 DUP7 LT ISZERO PUSH2 0x7CC JUMPI POP DUP1 JUMPDEST PUSH1 0x1F DUP6 ADD PUSH1 0x5 SHR DUP3 ADD SWAP2 POP JUMPDEST DUP2 DUP2 LT ISZERO PUSH2 0x7EB JUMPI DUP3 DUP2 SSTORE PUSH1 0x1 ADD PUSH2 0x7D8 JUMP JUMPDEST POP POP POP JUMPDEST POP POP POP JUMP JUMPDEST DUP2 MLOAD PUSH8 0xFFFFFFFFFFFFFFFF DUP2 GT ISZERO PUSH2 0x80E JUMPI PUSH2 0x80E PUSH2 0x553 JUMP JUMPDEST PUSH2 0x822 DUP2 PUSH2 0x81C DUP5 SLOAD PUSH2 0x76B JUMP JUMPDEST DUP5 PUSH2 0x7A5 JUMP JUMPDEST PUSH1 0x20 DUP1 PUSH1 0x1F DUP4 GT PUSH1 0x1 DUP2 EQ PUSH2 0x857 JUMPI PUSH1 0x0 DUP5 ISZERO PUSH2 0x83F JUMPI POP DUP6 DUP4 ADD MLOAD JUMPDEST PUSH1 0x0 NOT PUSH1 0x3 DUP7 SWAP1 SHL SHR NOT AND PUSH1 0x1 DUP6 SWAP1 SHL OR DUP6 SSTORE PUSH2 0x7EB JUMP JUMPDEST PUSH1 0x0 DUP6 DUP2 MSTORE PUSH1 0x20 DUP2 KECCAK256 PUSH1 0x1F NOT DUP7 AND SWAP2 JUMPDEST DUP3 DUP2 LT ISZERO PUSH2 0x886 JUMPI DUP9 DUP7 ADD MLOAD DUP3 SSTORE SWAP5 DUP5 ADD SWAP5 PUSH1 0x1 SWAP1 SWAP2 ADD SWAP1 DUP5 ADD PUSH2 0x867 JUMP JUMPDEST POP DUP6 DUP3 LT ISZERO PUSH2 0x8A4 JUMPI DUP8 DUP6 ADD MLOAD PUSH1 0x0 NOT PUSH1 0x3 DUP9 SWAP1 SHL PUSH1 0xF8 AND SHR NOT AND DUP2 SSTORE JUMPDEST POP POP POP POP POP PUSH1 0x1 SWAP1 DUP2 SHL ADD SWAP1 SSTORE POP JUMP JUMPDEST PUSH1 0x1 DUP1 PUSH1 0xA0 SHL SUB DUP4 AND DUP2 MSTORE PUSH1 0x0 PUSH1 0x20 PUSH1 0x40 DUP2 DUP5 ADD MSTORE PUSH1 0x0 DUP5 SLOAD PUSH2 0x8D6 DUP2 PUSH2 0x76B JUMP JUMPDEST DUP1 PUSH1 0x40 DUP8 ADD MSTORE PUSH1 0x60 PUSH1 0x1 DUP1 DUP5 AND PUSH1 0x0 DUP2 EQ PUSH2 0x8F8 JUMPI PUSH1 0x1 DUP2 EQ PUSH2 0x912 JUMPI PUSH2 0x940 JUMP JUMPDEST PUSH1 0xFF NOT DUP6 AND DUP10 DUP5 ADD MSTORE DUP4 ISZERO ISZERO PUSH1 0x5 SHL DUP10 ADD DUP4 ADD SWAP6 POP PUSH2 0x940 JUMP JUMPDEST DUP10 PUSH1 0x0 MSTORE DUP7 PUSH1 0x0 KECCAK256 PUSH1 0x0 JUMPDEST DUP6 DUP2 LT ISZERO PUSH2 0x938 JUMPI DUP2 SLOAD DUP12 DUP3 ADD DUP7 ADD MSTORE SWAP1 DUP4 ADD SWAP1 DUP9 ADD PUSH2 0x91D JUMP JUMPDEST DUP11 ADD DUP5 ADD SWAP7 POP POP JUMPDEST POP SWAP4 SWAP10 SWAP9 POP POP POP POP POP POP POP POP POP JUMP INVALID LOG2 PUSH5 0x6970667358 0x22 SLT KECCAK256 0xE3 0xED EXTCODEHASH PUSH16 0x1E1971BE959C3A8031D30A3FBBE10644 PUSH19 0xC0FBAB9F77A57A22C72CD864736F6C63430008 SLT STOP CALLER "},"methodIdentifiers":{"addMahasiswa(address,string,string)":"3d4311f8","getNamaMahasiswa(address)":"38b14a03","getNimMahasiswa(address)":"86848c5b","mahasiswa(address)":"8e905757","owner()":"8da5cb5b","setNamaMahasiswa(address,string)":"21715734"}},"storageLayout":{"storage":[{"astId":3,"contract":"contracts/Absensi.sol:Absensi","label":"owner","offset":0,"slot":"0","type":"t_address"},{"astId":15,"contract":"contracts/Absensi.sol:Absensi","label":"mahasiswa","offset":0,"slot":"1","type":"t_mapping(t_address,t_struct(Mahasiswa)10_storage)"}],"types":{"t_address":{"encoding":"inplace","label":"address","numberOfBytes":"20"},"t_bool":{"encoding":"inplace","label":"bool","numberOfBytes":"1"},"t_mapping(t_address,t_struct(Mahasiswa)10_storage)":{"encoding":"mapping","key":"t_address","label":"mapping(address => struct Absensi.Mahasiswa)","numberOfBytes":"32","value":"t_struct(Mahasiswa)10_storage"},"t_string_storage":{"encoding":"bytes","label":"string","numberOfBytes":"32"},"t_struct(Mahasiswa)10_storage":{"encoding":"inplace","label":"struct Absensi.Mahasiswa","members":[{"astId":5,"contract":"contracts/Absensi.sol:Absensi","label":"nim","offset":0,"slot":"0","type":"t_string_storage"},{"astId":7,"contract":"contracts/Absensi.sol:Absensi","label":"nama","offset":0,"slot":"1","type":"t_string_storage"},{"astId":9,"contract":"contracts/Absensi.sol:Absensi","label":"exist","offset":0,"slot":"2","type":"t_bool"}],"numberOfBytes":"96"}}}}}}