{
  "_format": "hh-sol-artifact-1",
  "contractName": "Absensi",
  "sourceName": "contracts/Absensi.sol",
  "abi": [
    {
      "inputs": [],
      "stateMutability": "nonpayable",
      "type": "constructor"
    },
    {
      "inputs": [
        {
          "internalType": "address",
          "name": "_mahasiswa",
          "type": "address"
        },
        {
          "internalType": "string",
          "name": "_nim",
          "type": "string"
        },
        {
          "internalType": "string",
          "name": "_nama",
          "type": "string"
        }
      ],
      "name": "addMahasiswa",
      "outputs": [],
      "stateMutability": "nonpayable",
      "type": "function"
    },
    {
      "inputs": [
        {
          "internalType": "address",
          "name": "_mahasiswa",
          "type": "address"
        }
      ],
      "name": "getMahasiswaNIM",
      "outputs": [
        {
          "internalType": "string",
          "name": "",
          "type": "string"
        }
      ],
      "stateMutability": "view",
      "type": "function"
    },
    {
      "inputs": [
        {
          "internalType": "address",
          "name": "_mahasiswa",
          "type": "address"
        }
      ],
      "name": "getMahasiswaName",
      "outputs": [
        {
          "internalType": "string",
          "name": "",
          "type": "string"
        }
      ],
      "stateMutability": "view",
      "type": "function"
    },
    {
      "inputs": [
        {
          "internalType": "address",
          "name": "",
          "type": "address"
        }
      ],
      "name": "mahasiswa",
      "outputs": [
        {
          "internalType": "string",
          "name": "nim",
          "type": "string"
        },
        {
          "internalType": "string",
          "name": "nama",
          "type": "string"
        }
      ],
      "stateMutability": "view",
      "type": "function"
    },
    {
      "inputs": [],
      "name": "owner",
      "outputs": [
        {
          "internalType": "address",
          "name": "",
          "type": "address"
        }
      ],
      "stateMutability": "view",
      "type": "function"
    }
  ],
  "bytecode": "0x608060405234801561001057600080fd5b50600080546001600160a01b031916331790556106b2806100326000396000f3fe608060405234801561001057600080fd5b50600436106100575760003560e01c80633d4311f81461005c578063661c57e8146100715780638da5cb5b1461009a5780638e905757146100c55780639190c09c146100e6575b600080fd5b61006f61006a366004610416565b6100f9565b005b61008461007f36600461048a565b610154565b60405161009191906104f2565b60405180910390f35b6000546100ad906001600160a01b031681565b6040516001600160a01b039091168152602001610091565b6100d86100d336600461048a565b610200565b604051610091929190610505565b6100846100f436600461048a565b61032c565b60408051808201825283815260208082018490526001600160a01b03861660009081526001909152919091208151829190819061013690826105bc565b506020820151600182019061014b90826105bc565b50505050505050565b6001600160a01b038116600090815260016020526040902080546060919061017b90610533565b80601f01602080910402602001604051908101604052809291908181526020018280546101a790610533565b80156101f45780601f106101c9576101008083540402835291602001916101f4565b820191906000526020600020905b8154815290600101906020018083116101d757829003601f168201915b50505050509050919050565b60016020526000908152604090208054819061021b90610533565b80601f016020809104026020016040519081016040528092919081815260200182805461024790610533565b80156102945780601f1061026957610100808354040283529160200191610294565b820191906000526020600020905b81548152906001019060200180831161027757829003601f168201915b5050505050908060010180546102a990610533565b80601f01602080910402602001604051908101604052809291908181526020018280546102d590610533565b80156103225780601f106102f757610100808354040283529160200191610322565b820191906000526020600020905b81548152906001019060200180831161030557829003601f168201915b5050505050905082565b6001600160a01b03811660009081526001602081905260409091200180546060919061017b90610533565b80356001600160a01b038116811461036e57600080fd5b919050565b634e487b7160e01b600052604160045260246000fd5b600082601f83011261039a57600080fd5b813567ffffffffffffffff808211156103b5576103b5610373565b604051601f8301601f19908116603f011681019082821181831017156103dd576103dd610373565b816040528381528660208588010111156103f657600080fd5b836020870160208301376000602085830101528094505050505092915050565b60008060006060848603121561042b57600080fd5b61043484610357565b9250602084013567ffffffffffffffff8082111561045157600080fd5b61045d87838801610389565b9350604086013591508082111561047357600080fd5b5061048086828701610389565b9150509250925092565b60006020828403121561049c57600080fd5b6104a582610357565b9392505050565b6000815180845260005b818110156104d2576020818501810151868301820152016104b6565b506000602082860101526020601f19601f83011685010191505092915050565b6020815260006104a560208301846104ac565b60408152600061051860408301856104ac565b828103602084015261052a81856104ac565b95945050505050565b600181811c9082168061054757607f821691505b60208210810361056757634e487b7160e01b600052602260045260246000fd5b50919050565b601f8211156105b757600081815260208120601f850160051c810160208610156105945750805b601f850160051c820191505b818110156105b3578281556001016105a0565b5050505b505050565b815167ffffffffffffffff8111156105d6576105d6610373565b6105ea816105e48454610533565b8461056d565b602080601f83116001811461061f57600084156106075750858301515b600019600386901b1c1916600185901b1785556105b3565b600085815260208120601f198616915b8281101561064e5788860151825594840194600190910190840161062f565b508582101561066c5787850151600019600388901b60f8161c191681555b5050505050600190811b0190555056fea26469706673582212203b9968b31a151eb5cb15dd26d7437c33deed42a5aa5b03809bba32d0e83d07c664736f6c63430008120033",
  "linkReferences": {},
  "deployedLinkReferences": {}
}